:1000000001308A0031290000223084008313000867
:10001000031918280130F800F701F70B0D28F80B29
:100020000C284A30F700F70B13281628800B0A28F3
:1000300008008316061083120610A11B24288316BD
:10004000881383128813282883168813831288172D
:10005000211B2F28831608138312081333288316B5
:10006000081383120817A11A3A28831688128312DC
:1000700088123E288316881283128816211A452872
:100080008316081283120812492883160812831255
:100090000816831686108312861483168610831220
:1000A0008610A119582883168813831288135C2898
:1000B000831688138312881721196328831608135F
:1000C0008312081367288316081383120817A118D0
:1000D0006E2883168812831288127228831688125B
:1000E00083128816211879288316081283120812A1
:1000F0007D28831608128312081683168610831231
:10010000861483168610831286100230A200042003
:10011000080083160610831206100F30A200042078
:100120008316081283120816831688128312881603
:100130008316861083128614831686108312861007
:100140000530A200042083168610831286148316BD
:100150008610831286102130F700F70BAD2802308D
:10016000A10019202830A10019200630A100192073
:100170000C30A10019200130A10019200230A2008A
:1001800004208A110A127D29831606108312061490
:10019000A11BCF288316881383128813D3288316B4
:1001A000881383128817211BDA28831608138312F9
:1001B0000813DE288316081383120817A11AE528EE
:1001C0008316881283128812E928831688128312F4
:1001D0008816211AF0288316081283120812F428B0
:1001E000831608128312081683168610831286144B
:1001F0008316861083128610A1190329831688138B
:1002000083128813072983168813831288172119EC
:100210000E29831608138312081312298316081354
:1002200083120817A11819298316881283128812BD
:100230001D298316881283128816211824298316F3
:10024000081283120812282983160812831208162E
:1002500083168610831286148316861083128610E6
:100260000800840183131F308305FF30A00083162C
:100270001F149F141F159F1107309C001F149F14FB
:100280001F159F111F1383121F139F1783169F1390
:1002900083121F148316091283129412A0122008CD
:1002A0008316870083122016200883168700831286
:1002B000A0112008831687000130831294000030BB
:1002C000831694000108C739083881008312900111
:1002D0000030F800920000308316920007309C0036
:1002E000050885000330F700F70B74291C088312FA
:1002F0000D1383169D01831289284030A100192017
:100300000630A100C4200930A100C4200930A1009A
:10031000C4200630A100C420A101C420A101C42032
:10032000A101C420A101C4200130A1001920A10114
:06033000C42097296300C0
:02400E00313F40
:00000001FF
;PIC16F877A
;CRC=2BDA  CREATED="14-jan-13 19:12"
